{
  "_format": "hh3-artifact-1",
  "contractName": "TriggerContract",
  "sourceName": "contracts/src/trigger.sol",
  "abi": [
    {
      "anonymous": false,
      "inputs": [
        {
          "indexed": true,
          "internalType": "uint256",
          "name": "triggerId",
          "type": "uint256"
        },
        {
          "indexed": false,
          "internalType": "uint256",
          "name": "value",
          "type": "uint256"
        }
      ],
      "name": "TriggerActivated",
      "type": "event"
    },
    {
      "anonymous": false,
      "inputs": [
        {
          "indexed": true,
          "internalType": "uint256",
          "name": "triggerId",
          "type": "uint256"
        },
        {
          "components": [
            {
              "internalType": "uint256",
              "name": "value",
              "type": "uint256"
            },
            {
              "internalType": "string",
              "name": "source",
              "type": "string"
            },
            {
              "internalType": "string",
              "name": "operator",
              "type": "string"
            },
            {
              "internalType": "string",
              "name": "expression",
              "type": "string"
            },
            {
              "internalType": "string",
              "name": "sourceSubType",
              "type": "string"
            }
          ],
          "indexed": false,
          "internalType": "struct TriggerLib.Condition",
          "name": "condition",
          "type": "tuple"
        },
        {
          "indexed": false,
          "internalType": "enum TriggerLib.Phase",
          "name": "phase",
          "type": "uint8"
        }
      ],
      "name": "TriggerAdded",
      "type": "event"
    },
    {
      "anonymous": false,
      "inputs": [
        {
          "indexed": true,
          "internalType": "uint256",
          "name": "triggerId",
          "type": "uint256"
        },
        {
          "indexed": false,
          "internalType": "enum TriggerLib.Phase",
          "name": "newPhase",
          "type": "uint8"
        }
      ],
      "name": "TriggerPhaseChanged",
      "type": "event"
    },
    {
      "inputs": [
        {
          "components": [
            {
              "internalType": "uint256",
              "name": "value",
              "type": "uint256"
            },
            {
              "internalType": "string",
              "name": "source",
              "type": "string"
            },
            {
              "internalType": "string",
              "name": "operator",
              "type": "string"
            },
            {
              "internalType": "string",
              "name": "expression",
              "type": "string"
            },
            {
              "internalType": "string",
              "name": "sourceSubType",
              "type": "string"
            }
          ],
          "internalType": "struct TriggerLib.Condition",
          "name": "condition",
          "type": "tuple"
        }
      ],
      "name": "addTrigger",
      "outputs": [
        {
          "internalType": "uint256",
          "name": "",
          "type": "uint256"
        }
      ],
      "stateMutability": "nonpayable",
      "type": "function"
    },
    {
      "inputs": [
        {
          "internalType": "uint256",
          "name": "triggerId",
          "type": "uint256"
        }
      ],
      "name": "getTrigger",
      "outputs": [
        {
          "components": [
            {
              "internalType": "uint256",
              "name": "id",
              "type": "uint256"
            },
            {
              "components": [
                {
                  "internalType": "uint256",
                  "name": "value",
                  "type": "uint256"
                },
                {
                  "internalType": "string",
                  "name": "source",
                  "type": "string"
                },
                {
                  "internalType": "string",
                  "name": "operator",
                  "type": "string"
                },
                {
                  "internalType": "string",
                  "name": "expression",
                  "type": "string"
                },
                {
                  "internalType": "string",
                  "name": "sourceSubType",
                  "type": "string"
                }
              ],
              "internalType": "struct TriggerLib.Condition",
              "name": "condition",
              "type": "tuple"
            },
            {
              "internalType": "enum TriggerLib.Phase",
              "name": "phase",
              "type": "uint8"
            },
            {
              "internalType": "bool",
              "name": "isTriggered",
              "type": "bool"
            }
          ],
          "internalType": "struct ITrigger.Trigger",
          "name": "",
          "type": "tuple"
        }
      ],
      "stateMutability": "view",
      "type": "function"
    },
    {
      "inputs": [
        {
          "internalType": "uint256",
          "name": "triggerId",
          "type": "uint256"
        }
      ],
      "name": "getTriggerValue",
      "outputs": [
        {
          "internalType": "uint256",
          "name": "",
          "type": "uint256"
        }
      ],
      "stateMutability": "view",
      "type": "function"
    },
    {
      "inputs": [],
      "name": "totalTriggers",
      "outputs": [
        {
          "internalType": "uint256",
          "name": "",
          "type": "uint256"
        }
      ],
      "stateMutability": "view",
      "type": "function"
    },
    {
      "inputs": [
        {
          "internalType": "uint256",
          "name": "triggerId",
          "type": "uint256"
        },
        {
          "internalType": "uint256",
          "name": "observedValue",
          "type": "uint256"
        }
      ],
      "name": "updateTriggerPhase",
      "outputs": [],
      "stateMutability": "nonpayable",
      "type": "function"
    }
  ],
  "bytecode": "0x6080604052348015600e575f5ffd5b50611a598061001c5f395ff3fe608060405234801561000f575f5ffd5b5060043610610055575f3560e01c80634c374ba2146100595780637cfbfa90146100755780638978ea89146100a55780639c50472b146100d5578063a90a3e1714610105575b5f5ffd5b610073600480360381019061006e9190610e28565b610123565b005b61008f600480360381019061008a9190610e88565b610622565b60405161009c9190610ede565b60405180910390f35b6100bf60048036038101906100ba9190610ef7565b610795565b6040516100cc9190610ede565b60405180910390f35b6100ef60048036038101906100ea9190610ef7565b6107fe565b6040516100fc9190611116565b60405180910390f35b61010d610b21565b60405161011a9190610ede565b60405180910390f35b5f8211801561013357505f548211155b610172576040517f08c379a000000000000000000000000000000000000000000000000000000000815260040161016990611190565b60405180910390fd5b5f60015f8481526020019081526020015f2090505f600281111561019957610198611029565b5b816006015f9054906101000a900460ff1660028111156101bc576101bb611029565b5b0361022b576001816006015f6101000a81548160ff021916908360028111156101e8576101e7611029565b5b0217905550827fd8d73ab1c61268e3a96cd444f9cb4344db5b0554ef237d2bcb30edbe2f14ddaf600160405161021e91906111bd565b60405180910390a261061d565b6001600281111561023f5761023e611029565b5b816006015f9054906101000a900460ff16600281111561026257610261611029565b5b036105e1575f6104c983836001016040518060a00160405290815f820154815260200160018201805461029490611203565b80601f01602080910402602001604051908101604052809291908181526020018280546102c090611203565b801561030b5780601f106102e25761010080835404028352916020019161030b565b820191905f5260205f20905b8154815290600101906020018083116102ee57829003601f168201915b5050505050815260200160028201805461032490611203565b80601f016020809104026020016040519081016040528092919081815260200182805461035090611203565b801561039b5780601f106103725761010080835404028352916020019161039b565b820191905f5260205f20905b81548152906001019060200180831161037e57829003601f168201915b505050505081526020016003820180546103b490611203565b80601f01602080910402602001604051908101604052809291908181526020018280546103e090611203565b801561042b5780601f106104025761010080835404028352916020019161042b565b820191905f5260205f20905b81548152906001019060200180831161040e57829003601f168201915b5050505050815260200160048201805461044490611203565b80601f016020809104026020016040519081016040528092919081815260200182805461047090611203565b80156104bb5780601f10610492576101008083540402835291602001916104bb565b820191905f5260205f20905b81548152906001019060200180831161049e57829003601f168201915b505050505081525050610b29565b90508061050b576040517f08c379a00000000000000000000000000000000000000000000000000000000081526004016105029061127d565b60405180910390fd5b6002826006015f6101000a81548160ff0219169083600281111561053257610531611029565b5b021790555060018260060160016101000a81548160ff0219169083151502179055508260025f8681526020019081526020015f2081905550837fd8d73ab1c61268e3a96cd444f9cb4344db5b0554ef237d2bcb30edbe2f14ddaf600260405161059b91906111bd565b60405180910390a2837f1733fb96aaa729e1431d0c406a95f3e6a3041fe35dae3ce5afa10f1c4715dd0e846040516105d39190610ede565b60405180910390a25061061c565b6040517f08c379a0000000000000000000000000000000000000000000000000000000008152600401610613906112e5565b60405180910390fd5b5b505050565b5f5f5f81548092919061063490611330565b91905055505f5f549050604051806080016040528082815260200184610659906115a4565b81526020015f600281111561067157610670611029565b5b81526020015f151581525060015f8381526020019081526020015f205f820151815f01556020820151816001015f820151815f015560208201518160010190816106bb9190611756565b5060408201518160020190816106d19190611756565b5060608201518160030190816106e79190611756565b5060808201518160040190816106fd9190611756565b5050506040820151816006015f6101000a81548160ff0219169083600281111561072a57610729611029565b5b021790555060608201518160060160016101000a81548160ff021916908315150217905550905050807f351495aa6ff66d8a47aebdb748ec48bbb0e48e86931bb69d585a43db864885ee845f60405161078492919061198d565b60405180910390a280915050919050565b5f5f821180156107a657505f548211155b6107e5576040517f08c379a00000000000000000000000000000000000000000000000000000000081526004016107dc90611190565b60405180910390fd5b60025f8381526020019081526020015f20549050919050565b610806610d77565b5f8211801561081657505f548211155b610855576040517f08c379a000000000000000000000000000000000000000000000000000000000815260040161084c90611190565b60405180910390fd5b5f60015f8481526020019081526020015f2090506040518060800160405280825f01548152602001826001016040518060a00160405290815f82015481526020016001820180546108a590611203565b80601f01602080910402602001604051908101604052809291908181526020018280546108d190611203565b801561091c5780601f106108f35761010080835404028352916020019161091c565b820191905f5260205f20905b8154815290600101906020018083116108ff57829003601f168201915b5050505050815260200160028201805461093590611203565b80601f016020809104026020016040519081016040528092919081815260200182805461096190611203565b80156109ac5780601f10610983576101008083540402835291602001916109ac565b820191905f5260205f20905b81548152906001019060200180831161098f57829003601f168201915b505050505081526020016003820180546109c590611203565b80601f01602080910402602001604051908101604052809291908181526020018280546109f190611203565b8015610a3c5780601f10610a1357610100808354040283529160200191610a3c565b820191905f5260205f20905b815481529060010190602001808311610a1f57829003601f168201915b50505050508152602001600482018054610a5590611203565b80601f0160208091040260200160405190810160405280929190818152602001828054610a8190611203565b8015610acc5780601f10610aa357610100808354040283529160200191610acc565b820191905f5260205f20905b815481529060010190602001808311610aaf57829003601f168201915b5050505050815250508152602001826006015f9054906101000a900460ff166002811115610afd57610afc611029565b5b81526020018260060160019054906101000a900460ff161515815250915050919050565b5f5f54905090565b5f5f826040015190505f835f01519050610b78826040518060400160405280600181526020017f3e00000000000000000000000000000000000000000000000000000000000000815250610d5d565b15610b895780851192505050610d57565b610bc8826040518060400160405280600281526020017f3e3d000000000000000000000000000000000000000000000000000000000000815250610d5d565b15610bda578085101592505050610d57565b610c19826040518060400160405280600181526020017f3c00000000000000000000000000000000000000000000000000000000000000815250610d5d565b15610c2a5780851092505050610d57565b610c69826040518060400160405280600281526020017f3c3d000000000000000000000000000000000000000000000000000000000000815250610d5d565b15610c7b578085111592505050610d57565b610cba826040518060400160405280600281526020017f3d3d000000000000000000000000000000000000000000000000000000000000815250610d5d565b15610ccb5780851492505050610d57565b610d0a826040518060400160405280600281526020017f213d000000000000000000000000000000000000000000000000000000000000815250610d5d565b15610d1c578085141592505050610d57565b6040517f08c379a0000000000000000000000000000000000000000000000000000000008152600401610d4e90611a05565b60405180910390fd5b92915050565b5f8180519060200120838051906020012014905092915050565b60405180608001604052805f8152602001610d90610db6565b81526020015f6002811115610da857610da7611029565b5b81526020015f151581525090565b6040518060a001604052805f8152602001606081526020016060815260200160608152602001606081525090565b5f604051905090565b5f5ffd5b5f5ffd5b5f819050919050565b610e0781610df5565b8114610e11575f5ffd5b50565b5f81359050610e2281610dfe565b92915050565b5f5f60408385031215610e3e57610e3d610ded565b5b5f610e4b85828601610e14565b9250506020610e5c85828601610e14565b9150509250929050565b5f5ffd5b5f60a08284031215610e7f57610e7e610e66565b5b81905092915050565b5f60208284031215610e9d57610e9c610ded565b5b5f82013567ffffffffffffffff811115610eba57610eb9610df1565b5b610ec684828501610e6a565b91505092915050565b610ed881610df5565b82525050565b5f602082019050610ef15f830184610ecf565b92915050565b5f60208284031215610f0c57610f0b610ded565b5b5f610f1984828501610e14565b91505092915050565b610f2b81610df5565b82525050565b5f81519050919050565b5f82825260208201905092915050565b8281835e5f83830152505050565b5f601f19601f8301169050919050565b5f610f7382610f31565b610f7d8185610f3b565b9350610f8d818560208601610f4b565b610f9681610f59565b840191505092915050565b5f60a083015f830151610fb65f860182610f22565b5060208301518482036020860152610fce8282610f69565b91505060408301518482036040860152610fe88282610f69565b915050606083015184820360608601526110028282610f69565b9150506080830151848203608086015261101c8282610f69565b9150508091505092915050565b7f4e487b71000000000000000000000000000000000000000000000000000000005f52602160045260245ffd5b6003811061106757611066611029565b5b50565b5f81905061107782611056565b919050565b5f6110868261106a565b9050919050565b6110968161107c565b82525050565b5f8115159050919050565b6110b08161109c565b82525050565b5f608083015f8301516110cb5f860182610f22565b50602083015184820360208601526110e38282610fa1565b91505060408301516110f8604086018261108d565b50606083015161110b60608601826110a7565b508091505092915050565b5f6020820190508181035f83015261112e81846110b6565b905092915050565b5f82825260208201905092915050565b7f496e76616c6964207472696767657220494400000000000000000000000000005f82015250565b5f61117a601283611136565b915061118582611146565b602082019050919050565b5f6020820190508181035f8301526111a78161116e565b9050919050565b6111b78161107c565b82525050565b5f6020820190506111d05f8301846111ae565b92915050565b7f4e487b71000000000000000000000000000000000000000000000000000000005f52602260045260245ffd5b5f600282049050600182168061121a57607f821691505b60208210810361122d5761122c6111d6565b5b50919050565b7f436f6e646974696f6e206e6f74206d65740000000000000000000000000000005f82015250565b5f611267601183611136565b915061127282611233565b602082019050919050565b5f6020820190508181035f8301526112948161125b565b9050919050565b7f5472696767657220616c726561647920616374697661746564000000000000005f82015250565b5f6112cf601983611136565b91506112da8261129b565b602082019050919050565b5f6020820190508181035f8301526112fc816112c3565b9050919050565b7f4e487b71000000000000000000000000000000000000000000000000000000005f52601160045260245ffd5b5f61133a82610df5565b91507fffffffffffffffffffffffffffffffffffffffffffffffffffffffffffffffff820361136c5761136b611303565b5b600182019050919050565b5f5ffd5b7f4e487b71000000000000000000000000000000000000000000000000000000005f52604160045260245ffd5b6113b182610f59565b810181811067ffffffffffffffff821117156113d0576113cf61137b565b5b80604052505050565b5f6113e2610de4565b90506113ee82826113a8565b919050565b5f5ffd5b5f5ffd5b5f5ffd5b5f67ffffffffffffffff8211156114195761141861137b565b5b61142282610f59565b9050602081019050919050565b828183375f83830152505050565b5f61144f61144a846113ff565b6113d9565b90508281526020810184848401111561146b5761146a6113fb565b5b61147684828561142f565b509392505050565b5f82601f830112611492576114916113f7565b5b81356114a284826020860161143d565b91505092915050565b5f60a082840312156114c0576114bf611377565b5b6114ca60a06113d9565b90505f6114d984828501610e14565b5f83015250602082013567ffffffffffffffff8111156114fc576114fb6113f3565b5b6115088482850161147e565b602083015250604082013567ffffffffffffffff81111561152c5761152b6113f3565b5b6115388482850161147e565b604083015250606082013567ffffffffffffffff81111561155c5761155b6113f3565b5b6115688482850161147e565b606083015250608082013567ffffffffffffffff81111561158c5761158b6113f3565b5b6115988482850161147e565b60808301525092915050565b5f6115af36836114ab565b9050919050565b5f819050815f5260205f209050919050565b5f6020601f8301049050919050565b5f82821b905092915050565b5f600883026116127fffffffffffffffffffffffffffffffffffffffffffffffffffffffffffffffff826115d7565b61161c86836115d7565b95508019841693508086168417925050509392505050565b5f819050919050565b5f61165761165261164d84610df5565b611634565b610df5565b9050919050565b5f819050919050565b6116708361163d565b61168461167c8261165e565b8484546115e3565b825550505050565b5f5f905090565b61169b61168c565b6116a6818484611667565b505050565b5b818110156116c9576116be5f82611693565b6001810190506116ac565b5050565b601f82111561170e576116df816115b6565b6116e8846115c8565b810160208510156116f7578190505b61170b611703856115c8565b8301826116ab565b50505b505050565b5f82821c905092915050565b5f61172e5f1984600802611713565b1980831691505092915050565b5f611746838361171f565b9150826002028217905092915050565b61175f82610f31565b67ffffffffffffffff8111156117785761177761137b565b5b6117828254611203565b61178d8282856116cd565b5f60209050601f8311600181146117be575f84156117ac578287015190505b6117b6858261173b565b86555061181d565b601f1984166117cc866115b6565b5f5b828110156117f3578489015182556001820191506020850194506020810190506117ce565b86831015611810578489015161180c601f89168261171f565b8355505b6001600288020188555050505b505050505050565b5f6118336020840184610e14565b905092915050565b5f5ffd5b5f5ffd5b5f5ffd5b5f5f8335600160200384360303811261186357611862611843565b5b83810192508235915060208301925067ffffffffffffffff82111561188b5761188a61183b565b5b6001820236038313156118a1576118a061183f565b5b509250929050565b5f6118b48385610f3b565b93506118c183858461142f565b6118ca83610f59565b840190509392505050565b5f60a083016118e65f840184611825565b6118f25f860182610f22565b506119006020840184611847565b85830360208701526119138382846118a9565b925050506119246040840184611847565b85830360408701526119378382846118a9565b925050506119486060840184611847565b858303606087015261195b8382846118a9565b9250505061196c6080840184611847565b858303608087015261197f8382846118a9565b925050508091505092915050565b5f6040820190508181035f8301526119a581856118d5565b90506119b460208301846111ae565b9392505050565b7f547269676765725574696c733a20696e76616c6964206f70657261746f7200005f82015250565b5f6119ef601e83611136565b91506119fa826119bb565b602082019050919050565b5f6020820190508181035f830152611a1c816119e3565b905091905056fea2646970667358221220429c03fc16ffdf825c238b93d99133a3a9b7dd1f2ed1ac91f3b960d66bd3c05764736f6c634300081e0033",
  "linkReferences": {},
  "deployedLinkReferences": {},
  "immutableReferences": {},
  "inputSourceName": "project/contracts/src/trigger.sol",
  "buildInfoId": "solc-0_8_30-1f86093232dc5ddc9e22835a0dc0e54493032992"
}